{
  "_format": "hh-sol-artifact-1",
  "contractName": "Voting",
  "sourceName": "contracts/Voting.sol",
  "abi": [
    {
      "inputs": [],
      "stateMutability": "nonpayable",
      "type": "constructor"
    },
    {
      "anonymous": false,
      "inputs": [
        {
          "indexed": true,
          "internalType": "uint256",
          "name": "_candidateId",
          "type": "uint256"
        }
      ],
      "name": "VotedEvent",
      "type": "event"
    },
    {
      "inputs": [
        {
          "internalType": "uint256",
          "name": "",
          "type": "uint256"
        }
      ],
      "name": "candidates",
      "outputs": [
        {
          "internalType": "uint256",
          "name": "id",
          "type": "uint256"
        },
        {
          "internalType": "string",
          "name": "name",
          "type": "string"
        },
        {
          "internalType": "uint256",
          "name": "voteCount",
          "type": "uint256"
        }
      ],
      "stateMutability": "view",
      "type": "function"
    },
    {
      "inputs": [],
      "name": "candidatesCount",
      "outputs": [
        {
          "internalType": "uint256",
          "name": "",
          "type": "uint256"
        }
      ],
      "stateMutability": "view",
      "type": "function"
    },
    {
      "inputs": [
        {
          "internalType": "uint256",
          "name": "_candidateId",
          "type": "uint256"
        }
      ],
      "name": "getCandidate",
      "outputs": [
        {
          "internalType": "uint256",
          "name": "",
          "type": "uint256"
        },
        {
          "internalType": "string",
          "name": "",
          "type": "string"
        },
        {
          "internalType": "uint256",
          "name": "",
          "type": "uint256"
        }
      ],
      "stateMutability": "view",
      "type": "function"
    },
    {
      "inputs": [],
      "name": "getCandidatesCount",
      "outputs": [
        {
          "internalType": "uint256",
          "name": "",
          "type": "uint256"
        }
      ],
      "stateMutability": "view",
      "type": "function"
    },
    {
      "inputs": [
        {
          "internalType": "address",
          "name": "_address",
          "type": "address"
        }
      ],
      "name": "hasVoted",
      "outputs": [
        {
          "internalType": "bool",
          "name": "",
          "type": "bool"
        }
      ],
      "stateMutability": "view",
      "type": "function"
    },
    {
      "inputs": [
        {
          "internalType": "uint256",
          "name": "_candidateId",
          "type": "uint256"
        }
      ],
      "name": "vote",
      "outputs": [],
      "stateMutability": "nonpayable",
      "type": "function"
    },
    {
      "inputs": [
        {
          "internalType": "address",
          "name": "",
          "type": "address"
        }
      ],
      "name": "voters",
      "outputs": [
        {
          "internalType": "bool",
          "name": "",
          "type": "bool"
        }
      ],
      "stateMutability": "view",
      "type": "function"
    }
  ],
  "bytecode": "0x60806040523480156200001157600080fd5b50620000586040518060400160405280600b81526020017f43616e6469646174652031000000000000000000000000000000000000000000815250620000ea60201b60201c565b6200009e6040518060400160405280600b81526020017f43616e6469646174652032000000000000000000000000000000000000000000815250620000ea60201b60201c565b620000e46040518060400160405280600b81526020017f43616e6469646174652033000000000000000000000000000000000000000000815250620000ea60201b60201c565b62000546565b60026000815480929190620000ff90620001a2565b91905055506040518060600160405280600254815260200182815260200160008152506001600060025481526020019081526020016000206000820151816000015560208201518160010190816200015891906200045f565b506040820151816002015590505050565b7f4e487b7100000000000000000000000000000000000000000000000000000000600052601160045260246000fd5b6000819050919050565b6000620001af8262000198565b91507fffffffffffffffffffffffffffffffffffffffffffffffffffffffffffffffff8203620001e457620001e362000169565b5b600182019050919050565b600081519050919050565b7f4e487b7100000000000000000000000000000000000000000000000000000000600052604160045260246000fd5b7f4e487b7100000000000000000000000000000000000000000000000000000000600052602260045260246000fd5b600060028204905060018216806200027157607f821691505b60208210810362000287576200028662000229565b5b50919050565b60008190508160005260206000209050919050565b60006020601f8301049050919050565b600082821b905092915050565b600060088302620002f17fffffffffffffffffffffffffffffffffffffffffffffffffffffffffffffffff82620002b2565b620002fd8683620002b2565b95508019841693508086168417925050509392505050565b6000819050919050565b6000620003406200033a620003348462000198565b62000315565b62000198565b9050919050565b6000819050919050565b6200035c836200031f565b620003746200036b8262000347565b848454620002bf565b825550505050565b600090565b6200038b6200037c565b6200039881848462000351565b505050565b5b81811015620003c057620003b460008262000381565b6001810190506200039e565b5050565b601f8211156200040f57620003d9816200028d565b620003e484620002a2565b81016020851015620003f4578190505b6200040c6200040385620002a2565b8301826200039d565b50505b505050565b600082821c905092915050565b6000620004346000198460080262000414565b1980831691505092915050565b60006200044f838362000421565b9150826002028217905092915050565b6200046a82620001ef565b67ffffffffffffffff811115620004865762000485620001fa565b5b62000492825462000258565b6200049f828285620003c4565b600060209050601f831160018114620004d75760008415620004c2578287015190505b620004ce858262000441565b8655506200053e565b601f198416620004e7866200028d565b60005b828110156200051157848901518255600182019150602085019450602081019050620004ea565b868310156200053157848901516200052d601f89168262000421565b8355505b6001600288020188555050505b505050505050565b6109a680620005566000396000f3fe608060405234801561001057600080fd5b506004361061007d5760003560e01c80633477ee2e1161005b5780633477ee2e146100ec57806335b8e8201461011e578063a3ec138d14610150578063bb9aa28f146101805761007d565b80630121b93f1461008257806309eef43e1461009e5780632d35a8a2146100ce575b600080fd5b61009c600480360381019061009791906105db565b61019e565b005b6100b860048036038101906100b39190610666565b61032e565b6040516100c591906106ae565b60405180910390f35b6100d6610383565b6040516100e391906106d8565b60405180910390f35b610106600480360381019061010191906105db565b610389565b60405161011593929190610783565b60405180910390f35b610138600480360381019061013391906105db565b61043b565b60405161014793929190610783565b60405180910390f35b61016a60048036038101906101659190610666565b610576565b60405161017791906106ae565b60405180910390f35b610188610596565b60405161019591906106d8565b60405180910390f35b6000803373ffffffffffffffffffffffffffffffffffffffff1673ffffffffffffffffffffffffffffffffffffffff16815260200190815260200160002060009054906101000a900460ff161561022a576040517f08c379a00000000000000000000000000000000000000000000000000000000081526004016102219061080d565b60405180910390fd5b60008111801561023c57506002548111155b61027b576040517f08c379a000000000000000000000000000000000000000000000000000000000815260040161027290610879565b60405180910390fd5b60016000803373ffffffffffffffffffffffffffffffffffffffff1673ffffffffffffffffffffffffffffffffffffffff16815260200190815260200160002060006101000a81548160ff0219169083151502179055506001600082815260200190815260200160002060020160008154809291906102f9906108c8565b9190505550807fe447c5464cb203c1da94b4db8588d3cbf313ce4a489122f6b88e87f465b2810e60405160405180910390a250565b60008060008373ffffffffffffffffffffffffffffffffffffffff1673ffffffffffffffffffffffffffffffffffffffff16815260200190815260200160002060009054906101000a900460ff169050919050565b60025481565b60016020528060005260406000206000915090508060000154908060010180546103b29061093f565b80601f01602080910402602001604051908101604052809291908181526020018280546103de9061093f565b801561042b5780601f106104005761010080835404028352916020019161042b565b820191906000526020600020905b81548152906001019060200180831161040e57829003601f168201915b5050505050908060020154905083565b600060606000808411801561045257506002548411155b610491576040517f08c379a000000000000000000000000000000000000000000000000000000000815260040161048890610879565b60405180910390fd5b600060016000868152602001908152602001600020604051806060016040529081600082015481526020016001820180546104cb9061093f565b80601f01602080910402602001604051908101604052809291908181526020018280546104f79061093f565b80156105445780601f1061051957610100808354040283529160200191610544565b820191906000526020600020905b81548152906001019060200180831161052757829003601f168201915b505050505081526020016002820154815250509050806000015181602001518260400151935093509350509193909250565b60006020528060005260406000206000915054906101000a900460ff1681565b6000600254905090565b600080fd5b6000819050919050565b6105b8816105a5565b81146105c357600080fd5b50565b6000813590506105d5816105af565b92915050565b6000602082840312156105f1576105f06105a0565b5b60006105ff848285016105c6565b91505092915050565b600073ffffffffffffffffffffffffffffffffffffffff82169050919050565b600061063382610608565b9050919050565b61064381610628565b811461064e57600080fd5b50565b6000813590506106608161063a565b92915050565b60006020828403121561067c5761067b6105a0565b5b600061068a84828501610651565b91505092915050565b60008115159050919050565b6106a881610693565b82525050565b60006020820190506106c3600083018461069f565b92915050565b6106d2816105a5565b82525050565b60006020820190506106ed60008301846106c9565b92915050565b600081519050919050565b600082825260208201905092915050565b60005b8381101561072d578082015181840152602081019050610712565b60008484015250505050565b6000601f19601f8301169050919050565b6000610755826106f3565b61075f81856106fe565b935061076f81856020860161070f565b61077881610739565b840191505092915050565b600060608201905061079860008301866106c9565b81810360208301526107aa818561074a565b90506107b960408301846106c9565b949350505050565b7f596f75206861766520616c726561647920766f74656400000000000000000000600082015250565b60006107f76016836106fe565b9150610802826107c1565b602082019050919050565b60006020820190508181036000830152610826816107ea565b9050919050565b7f496e76616c69642063616e646964617465204944000000000000000000000000600082015250565b60006108636014836106fe565b915061086e8261082d565b602082019050919050565b6000602082019050818103600083015261089281610856565b9050919050565b7f4e487b7100000000000000000000000000000000000000000000000000000000600052601160045260246000fd5b60006108d3826105a5565b91507fffffffffffffffffffffffffffffffffffffffffffffffffffffffffffffffff820361090557610904610899565b5b600182019050919050565b7f4e487b7100000000000000000000000000000000000000000000000000000000600052602260045260246000fd5b6000600282049050600182168061095757607f821691505b60208210810361096a57610969610910565b5b5091905056fea26469706673582212202135d3002d957db5a7a41cbffa8126ab40d41825f2b65de1dc964c963ee7933564736f6c63430008130033",
  "linkReferences": {},
  "deployedLinkReferences": {}
}